:100000000C9462000C948A000C948A000C948A0070
:100010000C948A000C948A000C948A000C948A0038
:100020000C948A000C948A000C948A000C948A0028
:100030000C948A000C948A000C948A000C948A0018
:100040000C94B0070C948A000C947D090C94C4099C
:100050000C948A000C948A000C948A000C948A00F8
:100060000C948A000C948A000000000024002700F1
:100070002A0000000000250028002B0000000000DE
:1000800023002600290004040404040404040202DA
:100090000202020203030303030301020408102007
:1000A0004080010204081020010204081020000012
:1000B0000007000201000003040600000000000029
:1000C00000002A0B11241FBECFEFD8E0DEBFCDBF4A
:1000D00011E0A0E0B1E0E0ECFAE102C005900D9281
:1000E000A832B107D9F712E0A8E2B1E001C01D9231
:1000F000A033B107E1F710E0C4ECD0E004C02297D0
:10010000FE010E945A0DC23CD107C9F70E947A0B2A
:100110000C945E0D0C940000AF92BF92CF92DF92D0
:10012000EF92FF920F931F93CF93DF9381E192E0C1
:100130000E94850A0E97D1F781E192E00E94B60AEB
:1001400080932A0190932B0180936E0181E192E0CC
:100150000E94B60A682F80936F01809102010E946D
:10016000D50881E192E00E94B60A8093700190E088
:10017000A0E0B0E0DC019927882780932C019093C0
:100180002D01A0932E01B0932F0181E192E00E94F6
:10019000B60A8093710190E0A0E0B0E0BA2FA92FD9
:1001A000982F882720912C0130912D0140912E010C
:1001B00050912F01280F391F4A1F5B1F20932C01DC
:1001C00030932D0140932E0150932F0181E192E055
:1001D0000E94B60A8093720120912C0130912D016A
:1001E00040912E0150912F01280F311D411D511DAD
:1001F00020932C0130932D0140932E0150932F0119
:1002000081E192E00E94B60A682F80937301809189
:1002100006010E94D50881E192E00E94B60A80930F
:10022000740190E0A0E0B0E0DC019927882780937A
:10023000300190933101A0933201B093330181E1F9
:1002400092E00E94B60A8093750190E0A0E0B0E0D1
:10025000BA2FA92F982F8827209130013091310192
:100260004091320150913301280F391F4A1F5B1F03
:100270002093300130933101409332015093330188
:1002800081E192E00E94B60A8093760120913001CC
:10029000309131014091320150913301280F311DCD
:1002A000411D511D209330013093310140933201A3
:1002B0005093330181E192E00E94B60A682F809347
:1002C000770180910A010E94D50881E192E00E94A5
:1002D000B60A8093780190E0A0E0B0E0DC019927B5
:1002E00088278093340190933501A0933601B09311
:1002F000370181E192E00E94B60A8093790190E093
:10030000A0E0B0E0BA2FA92F982F882720913401C0
:10031000309135014091360150913701280F391F36
:100320004A1F5B1F209334013093350140933601FF
:100330005093370181E192E00E94B60A80937A01DE
:1003400020913401309135014091360150913701AF
:10035000280F311D411D511D20933401309335016B
:10036000409336015093370181E192E00E94B60A32
:1003700080937B0125E130E0281B310940917B010E
:1003800050917C0180917D0190917E01840F951F99
:10039000BC01269FC001279F900D369F900D112410
:1003A000841B950B909347018093460180912A010D
:1003B00090912B01029709F03AC2109248011092D5
:1003C000490110924A0110924B0180912C019091A9
:1003D0002D01A0912E01B0912F01181619061A06B1
:1003E0001B0644F48093480190934901A0934A016D
:1003F000B0934B0120913001309131014091320195
:10040000509133018091480190914901A0914A0196
:10041000B0914B0182179307A407B50744F42093CA
:1004200048013093490140934A0150934B01209178
:10043000340130913501409136015091370180915E
:10044000480190914901A0914A01B0914B01821756
:100450009307A407B50744F420934801309349015A
:1004600040934A0150934B0160912C0170912D01F2
:1004700080912E0190912F010E94820C7B018C01B2
:10048000609148017091490180914A0190914B011E
:100490000E94820C5B016C01C801B701A6019501A5
:1004A0000E94180C60934C0170934D0180934E0193
:1004B00090934F0160913001709131018091320130
:1004C000909133010E94820CA60195010E94180CA4
:1004D00060935001709351018093520190935301A6
:1004E000609134017091350180913601909137010E
:1004F0000E94820CA60195010E94180C6093540181
:1005000070935501809356019093570180E090E0DD
:10051000A0E0B0E080935E0190935F01A093600142
:10052000B09361018093620190936301A093640191
:10053000B09365018093660190936701A093680171
:10054000B093690181E090E0A0E0B0E080936A019F
:1005500090936B01A0936C01B0936D01C1E0D0E06A
:1005600047C160915E0170915F018091600190913F
:10057000610120914C0130914D0140914E0150910B
:100580004F010E94B40B7B018C0160935E0170935C
:100590005F018093600190936101609162017091AD
:1005A0006301809164019091650120915001309127
:1005B000510140915201509153010E94B40B60933C
:1005C000620170936301809364019093650160916F
:1005D0006601709167018091680190916901209195
:1005E00054013091550140915601509157010E949C
:1005F000B40B6093660170936701809368019093D8
:100600006901109259011092580110925B011092E9
:100610005A0110925D0110925C01C801B70120E0FF
:1006200030E040E85FE30E94320D88233CF1D09334
:100630005901C0935801C801B70120E030E040E8FB
:100640005FE30E94B30B60935E0170935F01809340
:100650006001909361018091380190913901A091DE
:100660003A01B0913B010196A11DB11D8093380163
:1006700090933901A0933A01B0933B0160916201DC
:1006800070916301809164019091650120E030E0F8
:1006900040E85FE30E94320D88236CF1D0935B0148
:1006A000C0935A016091620170916301809164016D
:1006B0009091650120E030E040E85FE30E94B30BD9
:1006C000609362017093630180936401909365016C
:1006D00080913C0190913D01A0913E01B0913F017C
:1006E0000196A11DB11D80933C0190933D01A09303
:1006F0003E01B0933F016091660170916701809166
:1007000068019091690120E030E040E85FE30E94D9
:10071000320D88236CF1D0935D01C0935C01609130
:10072000660170916701809168019091690120E0F4
:1007300030E040E85FE30E94B30B60936601709382
:1007400067018093680190936901809140019091C5
:100750004101A0914201B09143010196A11DB11D3B
:100760008093400190934101A0934201B0934301D3
:1007700080910001609158010E94D5088091040188
:1007800060915A010E94D5088091080160915C0136
:100790000E94D50880917B0190917C010E945108B4
:1007A0008091000160E00E94D5088091040160E022
:1007B0000E94D5088091080160E00E94D5088091D0
:1007C0004601909147010E94510880916A019091E1
:1007D0006B01A0916C01B0916D010196A11DB11D3D
:1007E00080936A0190936B01A0936C01B0936D01AB
:1007F00020916A0130916B0140916C0150916D0123
:100800008091480190914901A0914A01B0914B011A
:1008100082179307A407B5070CF0A3CE81E192E0FD
:100820000E94DF0A81E192E06FEF0E94F10A80915D
:100830002A0190912B01039779F460912C0170911A
:100840002D0180912E0190912F010E94F80781E1E6
:1008500092E06FEF0E94F10A80912A0190912B01A2
:10086000049709F05EC080912C0190912D01A09118
:100870002E01B0912F010197A105B10541F480919E
:100880001201909113019093290180932801809186
:100890002C0190912D01A0912E01B0912F01029772
:1008A000A105B10541F48091140190911501909337
:1008B0002901809328018091280161E00E94960817
:1008C0008091280160E00E94D5086AE070E080E035
:1008D00090E00E94F8078091280161E00E94D5080D
:1008E0006AE070E080E090E00E94F80780912801C3
:1008F00060E00E94D5086AE070E080E090E00E942D
:10090000F8078091280160E00E94960880912801F4
:100910000E9429090197D1F781E192E06FEF0E94CF
:10092000F10A80912A0190912B01059761F4809141
:100930002C01895F609130010E94D50881E192E02D
:100940006FEF0E94F10A80912A0190912B01069786
:1009500009F041C080912C0190912D01A0912E01B0
:10096000B0912F010197A105B10541F41092380112
:100970001092390110923A0110923B01809130019E
:1009800090913101A0913201B09133010197A105FD
:10099000B10541F410923C0110923D0110923E01CC
:1009A00010923F018091340190913501A091360160
:1009B000B09137010197A105B10541F410924001B2
:1009C00010924101109242011092430181E192E0A4
:1009D0006FEF0E94F10A80912A0190912B010797F5
:1009E00009F07AC180912C0190912D01A0912E01E6
:1009F000B0912F010297A105B10569F48091020120
:100A000061E00E94D50880910001909101019093CE
:100A10004501809344018091300190913101A09172
:100A20003201B09133010297A105B10569F48091BB
:100A3000060161E00E94D5088091040190910501B2
:100A40009093450180934401809134019091350148
:100A5000A0913601B09137010297A105B10569F463
:100A600080910A0161E00E94D5088091080190916F
:100A70000901909345018093440180912C0190914C
:100A80002D01A0912E01B0912F010197A105B10573
:100A900069F48091020160E00E94D5088091000114
:100AA0009091010190934501809344018091300120
:100AB00090913101A0913201B09133010197A105CC
:100AC000B10569F48091060160E00E94D50880912B
:100AD0000401909105019093450180934401809118
:100AE000340190913501A0913601B0913701019701
:100AF000A105B10569F480910A0160E00E94D50862
:100B000080910801909109019093450180934401DF
:100B10008091160161E00E9496088091160160E0C4
:100B20000E94D50882E090E00E9451088091160151
:100B300061E00E94D50885E090E00E945108809114
:100B4000160160E00E94D5088091160160E00E94C5
:100B5000960816C08091440161E00E94D5088091FA
:100B60007B0190917C010E9451088091440160E0DA
:100B70000E94D50880914601909147010E9451083A
:100B8000809116010E942909019721F780912C017B
:100B900090912D01A0912E01B0912F010297A105F6
:100BA000B10529F48091020160E00E94D50880918E
:100BB000300190913101A0913201B091330102973F
:100BC000A105B10529F48091060160E00E94D508D5
:100BD0008091340190913501A0913601B091370197
:100BE0000297A105B10529F480910A0160E00E94F5
:100BF000D50880912C0190912D01A0912E01B091EA
:100C00002F010197A105B10529F48091020161E04E
:100C10000E94D5088091300190913101A09132015C
:100C2000B09133010197A105B10529F48091060126
:100C300061E00E94D5088091340190913501A09126
:100C40003601B09137010197A105B10529F48091D2
:100C50000A0161E00E94D50881E090E0A0E0B0E0E8
:100C600021C08091440161E00E94D50880917B0100
:100C700090917C010E9451088091440160E00E94A3
:100C8000D50880914601909147010E9451088091BA
:100C90006A0190916B01A0916C01B0916D01019678
:100CA000A11DB11D80936A0190936B01A0936C010B
:100CB000B0936D0180916A0190916B01A0916C01DC
:100CC000B0916D0181599140A040B04054F281E152
:100CD00092E06FEF0E94F10A80912A0190912B011E
:100CE0000A9759F581E192E00E94DF0A60912C0198
:100CF00070912D018FE791E0409174010E94A4074B
:100D000060912C0170912D016F5F7F4F8FE791E013
:100D1000409175010E94A40760912C0170912D01F2
:100D20006E5F7F4F8FE791E0409176010E94A407AC
:100D300081E192E06FEF0E94F10A80912A01909187
:100D40002B010B9761F4609172018FE791E070E0E5
:100D50000E949D07682F81E192E00E94F10ADF91D5
:100D6000CF911F910F91FF90EF90DF90CF90BF90A8
:100D7000AF900895CF92DF92EF92FF920F931F935F
:100D8000B1E1CB2EB2E0DB2EC60140E855E260E0D7
:100D900070E00E94FF098091000161E00E949608C6
:100DA0008091020161E00E9496088091040161E057
:100DB0000E9496088091060161E00E949608809149
:100DC000080161E00E94960880910A0161E00E949A
:100DD00096088091160161E00E94960880910C01AE
:100DE00061E00E94960880910E0161E00E949608E1
:100DF0008091100161E00E9496088091120160E0EC
:100E00000E9496088091140160E00E9496088091EB
:100E1000000160E00E94D5088091020160E00E941C
:100E2000D5088091040160E00E94D50880910601F8
:100E300060E00E94D5088091080160E00E94D5081A
:100E400080910A0160E00E94D5088091160160E05F
:100E50000E94D50880910C0160E00E94D508809125
:100E60000E0160E00E94D5088091100160E00E94B0
:100E7000D5088091120160E00E94D508809114018C
:100E800060E00E94D508AFE7EA2EA1E0FA2EC70184
:100E900061E070E00E949D0710927C0110927B013E
:100EA000C70162E070E00E949D07182F00E01093D8
:100EB0007C0100937B01C70163E070E00E949D0705
:100EC000080F111D10937C0100937B01C70164E0A2
:100ED00070E00E949D0790E0A0E0B0E0DC0199275F
:100EE00088278C0190937E0180937D01C70165E086
:100EF00070E00E949D0790E0A0E0B0E0BA2FA92F1B
:100F0000982F8827080F191F10937E0100937D01E9
:100F1000C70166E070E00E949D07080F111D109345
:100F20007E0100937D01C6010E94DF0A1F910F918F
:100F3000FF90EF90DF90CF900895F999FECF72BDAA
:100F400061BDF89A80B50895F999FECF1FBA72BDB8
:100F500061BD40BD0FB6F894FA9AF99A0FBE089594
:100F60001F920F920FB60F9211242F933F938F93DE
:100F70009F93AF93BF938091840190918501A0913D
:100F80008601B0918701309188010196A11DB11DA4
:100F9000232F2D5F2D3720F02D570196A11DB11D58
:100FA000209388018093840190938501A09386010A
:100FB000B09387018091800190918101A09182017D
:100FC000B09183010196A11DB11D80938001909382
:100FD0008101A0938201B0938301BF91AF919F9152
:100FE0008F913F912F910F900FBE0F901F901895EA
:100FF0009B01AC017FB7F8948091800190918101B1
:10100000A0918201B091830166B5A89B05C06F3F96
:1010100019F00196A11DB11D7FBFBA2FA92F982FDE
:101020008827860F911DA11DB11D62E0880F991FB1
:10103000AA1FBB1F6A95D1F7BC012DC0FFB7F8945A
:101040008091800190918101A0918201B0918301F2
:10105000E6B5A89B05C0EF3F19F00196A11DB11D93
:10106000FFBFBA2FA92F982F88278E0F911DA11D82
:10107000B11DE2E0880F991FAA1FBB1FEA95D1F7A7
:10108000861B970B885E9340C8F221503040404049
:10109000504068517C4F211531054105510571F6CD
:1010A0000895019739F0880F991F880F991F0297AB
:1010B0000197F1F70895789484B5826084BD84B572
:1010C000816084BD85B5826085BD85B5816085BD43
:1010D000EEE6F0E0808181608083E1E8F0E010825C
:1010E000808182608083808181608083E0E8F0E09D
:1010F000808181608083E1EBF0E080818460808387
:10110000E0EBF0E0808181608083EAE7F0E08081BD
:10111000846080838081826080838081816080831D
:101120008081806880831092C1000895CF93DF93FF
:10113000482F50E0CA0186569F4FFC0134914A5710
:101140005F4FFA018491882369F190E0880F991F1D
:10115000FC01E859FF4FA591B491FC01EE58FF4FF7
:10116000C591D491662351F42FB7F8948C91932FA5
:10117000909589238C93888189230BC0623061F418
:101180002FB7F8948C91932F909589238C93888115
:10119000832B88832FBF06C09FB7F8948C91832B35
:1011A0008C939FBFDF91CF910895482F50E0CA01E3
:1011B00082559F4FFC012491CA0186569F4FFC0126
:1011C00094914A575F4FFA013491332309F440C098
:1011D000222351F1233071F0243028F42130A1F082
:1011E000223011F514C02630B1F02730C1F0243080
:1011F000D9F404C0809180008F7703C08091800073
:101200008F7D8093800010C084B58F7702C084B535
:101210008F7D84BD09C08091B0008F7703C080911D
:10122000B0008F7D8093B000E32FF0E0EE0FFF1F42
:10123000EE58FF4FA591B4912FB7F894662321F48F
:101240008C919095892302C08C91892B8C932FBF10
:101250000895682F70E0CB0182559F4FFC012491C7
:10126000CB0186569F4FFC0144916A577F4FFB018B
:101270009491992319F420E030E03CC0222351F1ED
:10128000233071F0243028F42130A1F0223011F500
:1012900014C02630B1F02730C1F02430D9F404C096
:1012A000809180008F7703C0809180008F7D809334
:1012B000800010C084B58F7702C084B58F7D84BD57
:1012C00009C08091B0008F7703C08091B0008F7DFE
:1012D0008093B000892F90E0880F991F84589F4F0A
:1012E000FC01A591B4918C9120E030E0842311F0B1
:1012F00021E030E0C901089508951F920F920FB6C2
:101300000F9211242F933F934F938F939F93EF93BB
:10131000FF934091C6002091C9013091CA012F5F0F
:101320003F4F2F7330708091CB019091CC012817E3
:10133000390759F0E091C901F091CA01E757FE4F12
:1013400040833093CA012093C901FF91EF919F918F
:101350008F914F913F912F910F900FBE0F901F9043
:101360001895E0911D02F0911E02E05CFF4F819103
:10137000919120813181821B930B8F739070892B07
:1013800011F00E947C0908951F920F920FB60F92E0
:1013900011242F933F938F939F93EF93FF9320916B
:1013A0000D0230910E0280910F02909110022817C9
:1013B000390731F48091C1008F7D8093C10014C042
:1013C000E0910F02F0911002E353FE4F20818091D3
:1013D0000F029091100201968F73907090931002FB
:1013E00080930F022093C600FF91EF919F918F9100
:1013F0003F912F910F900FBE0F901F901895AF92B5
:10140000BF92DF92EF92FF920F931F93CF93DF93E0
:10141000EC017A018B01DD24403081EE580780E039
:10142000680780E0780711F0DD24D39491E0A92EBD
:10143000B12CEC89FD89DD2069F0C5010E8C02C05C
:10144000880F991F0A94E2F7808360E079E08DE3CA
:1014500090E005C0108260E874E88EE190E0A80199
:1014600097010E94360D2150304040405040569523
:1014700047953795279580E12030380720F0DD200B
:1014800011F0DD24D6CFE889F9893083EA89FB8918
:101490002083EE89FF89408121E030E0C9010A8C78
:1014A00002C0880F991F0A94E2F7482B4083EE8907
:1014B000FF894081C9010B8C02C0880F991F0A94D3
:1014C000E2F7482B4083EE89FF894081C9010C8CEB
:1014D00002C0880F991F0A94E2F7482B4083EE89D7
:1014E000FF8980810D8C02C0220F331F0A94E2F71E
:1014F000209528232083DF91CF911F910F91FF909A
:10150000EF90DF90BF90AF900895DC011C96ED91B5
:10151000FC911D97E05CFF4F219131918081918179
:10152000281B390B2F733070C9010895DC011C96FC
:10153000ED91FC911D97E05CFF4F20813181E054DB
:10154000F040DF01AE5BBF4F8D919C911197281742
:10155000390719F42FEF3FEF07C08D919C91E80FE9
:10156000F91F8081282F30E0C9010895DC011C9605
:10157000ED91FC911D97E05CFF4F20813181E0549B
:10158000F040DF01AE5BBF4F8D919C911197281702
:10159000390719F42FEF3FEF10C08D919C911197EF
:1015A000E80FF91F20818D919C91119701968F73FF
:1015B000907011969C938E9330E0C9010895FC01C0
:1015C00086859785DC01A05CBF4FFC01EE5BFF4F79
:1015D0002D913C9111978081918128173907C1F78E
:1015E0000895CF93DF93EC01EE85FF85E05CFF4F1C
:1015F00020813181E054F0402F5F3F4F2F733070D6
:10160000DF01AE5BBF4F8D919C9111972817390771
:10161000D1F3E05CFF4F80819181E054F040E80F0E
:10162000F91F6083EE85FF85E05CFF4F31832083E7
:10163000EE89FF89208181E090E00D8C02C0880F47
:10164000991F0A94E2F7282B208381E090E0DF9134
:10165000CF910895109214021092130288EE93E035
:10166000A0E0B0E08093150290931602A0931702B9
:10167000B09318028CE191E09093120280931102D2
:1016800089E891E090931E0280931D028DEC91E019
:101690009093200280931F0285EC90E090932202A9
:1016A0008093210284EC90E09093240280932302A3
:1016B00080EC90E0909326028093250281EC90E0EC
:1016C000909328028093270286EC90E090932A0260
:1016D0008093290284E080932B0283E080932C0284
:1016E00087E080932D0285E080932E0281E0809335
:1016F0002F020895CF93DF930E945B080E94BA06E1
:10170000C1EBD9E00E948C002097E1F30E94B1095F
:10171000F9CFCF92DF92EF92FF920F931F93CF9367
:10172000DF937C016B018A01C0E0D0E00FC0D601DD
:101730006D916D01D701ED91FC910190F081E02D4B
:10174000C7010995C80FD91F015010400115110597
:1017500071F7CE01DF91CF911F910F91FF90EF9024
:10176000DF90CF9008955058BB27AA270ED040C1D4
:1017700031D130F036D120F031F49F3F11F41EF416
:1017800026C10EF4E095E7FB1CC1E92F42D180F39E
:10179000BA17620773078407950718F071F49EF56E
:1017A0005AC10EF4E0950B2EBA2FA02D0B01B901F2
:1017B00090010C01CA01A0011124FF27591B99F0C7
:1017C000593F50F4503E68F11A16F040A22F232FD3
:1017D000342F4427585FF3CF469537952795A79523
:1017E000F0405395C9F77EF41F16BA0B620B730BCA
:1017F000840BBAF09150A1F0FF0FBB1F661F771F3B
:10180000881FC2F70EC0BA0F621F731F841F48F4EF
:10181000879577956795B795F7959E3F08F0B3CF75
:101820009395880F08F09927EE0F9795879508955F
:101830000CD0DEC0D6D040F0CDD030F021F45F3FE8
:1018400019F0BFC0511108C1C2C0E3D098F3992369
:10185000C9F35523B1F3951B550BBB27AA27621774
:101860007307840738F09F5F5F4F220F331F441FB9
:10187000AA1FA9F333D00E2E3AF0E0E830D09150F1
:101880005040E695001CCAF729D0FE2F27D0660FDE
:10189000771F881FBB1F261737074807AB07B0E81D
:1018A00009F0BB0B802DBF01FF2793585F4F2AF033
:1018B0009E3F510568F085C0CFC05F3FECF3983E76
:1018C000DCF3869577956795B795F7959F5FC9F790
:1018D000880F911D9695879597F90895E1E0660F19
:1018E000771F881FBB1F621773078407BA0720F092
:1018F000621B730B840BBA0BEE1F88F7E0950895FB
:10190000E89409C097FB3EF4909580957095619599
:101910007F4F8F4F9F4F9923A9F0F92F96E9BB274F
:101920009395F695879577956795B795F111F8CFCB
:10193000FAF4BB0F11F460FF1BC06F5F7F4F8F4F36
:101940009F4F16C0882311F096E911C0772321F02C
:101950009EE8872F762F05C0662371F096E8862FC4
:1019600070E060E02AF09A95660F771F881FDAF71B
:10197000880F9695879597F90895990F0008550F48
:10198000AA0BE0E8FEEF16161706E807F907C0F005
:1019900012161306E407F50798F0621B730B840B0D
:1019A000950B39F40A2661F0232B242B252B21F4E7
:1019B00008950A2609F4A140A6958FEF811D811D87
:1019C000089597F99F6780E870E060E008959FEFC1
:1019D00080EC089500240A941616170618060906C6
:1019E000089500240A941216130614060506089595
:1019F000092E0394000C11F4882352F0BB0F40F41D
:101A0000BF2B11F460FF04C06F5F7F4F8F4F9F4F5C
:101A1000089557FD9058440F551F59F05F3F71F0DE
:101A20004795880F97FB991F61F09F3F79F0879545
:101A30000895121613061406551FF2CF4695F1DFCE
:101A400008C0161617061806991FF1CF869571055E
:101A5000610508940895E894BB2766277727CB0192
:101A600097F908958ADF08F48FEF0895A1E21A2EFE
:101A7000AA1BBB1BFD010DC0AA1FBB1FEE1FFF1F32
:101A8000A217B307E407F50720F0A21BB30BE40B82
:101A9000F50B661F771F881F991F1A9469F76095C9
:101AA0007095809590959B01AC01BD01CF01089583
:101AB000EE0FFF1F0590F491E02D0994F894FFCFED
:101AC00002000300040005000600070008000900EA
:101AD0000A000B000C000D0000000000F10A890B49
:081AE000850AB60A960ADF0A26
:00000001FF
